:020000040800F2
:10000000400400209D010008050C0008C7090008F5
:10001000FD090008E5010008391200080000000091
:10002000000000000000000000000000610D00085A
:100030001909000800000000ED0C00085D0E000822
:10004000B7010008B7010008B7010008B7010008B0
:10005000B7010008B7010008B7010008B7010008A0
:10006000B7010008B7010008B7010008B701000890
:10007000B7010008B7010008B7010008B701000880
:10008000B7010008B7010008B7010008B701000870
:10009000B1020008B7010008B7010008B701000865
:1000A000B7010008B7010008B7010008B701000850
:1000B000990F0008B7010008B7010008B701000850
:1000C000B7010008B7010008B7010008B701000830
:1000D000B7010008B7010008B7010008B701000820
:1000E000B7010008B7010008B7010008B701000810
:1000F000B7010008B7010008B7010008B701000800
:10010000B7010008B7010008B7010008B7010008EF
:10011000B7010008B7010008B7010008B7010008DF
:10012000B7010008B7010008B7010008B7010008CF
:10013000B7010008B7010008B7010008B7010008BF
:10014000E1030008B7010008B7010008B701000883
:10015000B7010008B7010008B7010008B70100089F
:10016000B7010008B7010008B7010008B70100088F
:10017000B7010008B7010008B7010008B70100087F
:10018000B7010008B7010008DFF80CD000F018F83C
:1001900000480047951200084004002006488047A8
:1001A00006480047FEE7FEE7FEE7FEE7FEE7FEE75C
:1001B000FEE7FEE7FEE7FEE7610E000889010008A2
:1001C000064C074D06E0E06840F0010394E80700A4
:1001D00098471034AC42F6D3FFF7DAFF2814000832
:1001E00048140008FEE70000F0B589B0012108209E
:1001F00000F07EFD0125079502268DF820608DF820
:10020000216000248DF822408DF82350264F07A945
:10021000384600F082FB079607A9384600F07DFBC0
:1002200009220021384600F0B6FB09220121384698
:1002300000F0B1FB0121480600F068FD1B4E30467E
:1002400000F05AF904A800F0AAFA8DF816408DF8CB
:10025000174006948DF8124004A9FA2000F0ECF83B
:1002600004A9304600F0D8F98DF80A408DF80B400B
:100270008DF80C50ADF800404FF40970ADF8020055
:100280004FF6FF71ADF80410ADF80610ADF8084058
:100290008DF80D50684600F04BF9012202213046DE
:1002A00000F0B0F909B0F0BD000C0240006400405D
:1002B00070B586B00024134D0020019002908DF897
:1002C0000C008DF80E008DF817008DF80F000E4E03
:1002D00001AA0021304600F021FA0298442807D1F3
:1002E00001A90819C07A2855641CE4B2082CF8D377
:1002F0000649012008700221304600F0B9F806B026
:1003000070BD00001C0000200064004000000020C0
:1003100070B58AB00121022000F0EAFC202008908C
:1003200002208DF824008DF8250000248DF8264049
:1003300001258DF82750284E08A9304600F0EDFA27
:100340004021089108A9304600F0E7FA092205216A
:10035000304600F020FB09220621304600F01BFB4E
:1003600001214FF0C06000F0D1FC1C4E304600F07F
:10037000C3F805A800F013FA8DF81A408DF81B4059
:1003800007948DF8164005A9FA2000F055F805A944
:10039000304600F041F90E208DF80E008DF80F4028
:1003A0008DF81050ADF804403420ADF806004FF63B
:1003B000FF71ADF80810ADF80A10ADF80C408DF8DB
:1003C000115001A800F0B4F801220221304600F0DB
:1003D00019F90AB070BD0000000402400068004036
:1003E00010B586B00020019002908DF80C008DF8B9
:1003F0000E008DF817008DF80F000C4C01AA00219B
:10040000204600F08BF90299062906D108499DF88B
:100410000F200A709DF810204A70064A0121517081
:100420000221204600F024F806B010BD006800400C
:10043000120000200000002010B500220B4B02EB40
:10044000820453F8244084420CD102EB820003EB77
:1004500080000279CA70027A0A71027B4A71008AAE
:10046000088010BD521C122AE9D310BDC01200082A
:1004700030B5082310240422B1F5007F33D011DCFD
:1004800020292AD007DC012922D0042923D00829D9
:1004900000D1C46030BD402921D0B1F5807FF9D1B1
:1004A000426030BD0025B1F5004F20D008DCB1F529
:1004B000806F1AD0B1F5006FF3D18561426030BD15
:1004C000B1F5803F0DD0B1F5003FF8D1446030BDAB
:1004D0000849816030BDC36030BD036130BD046137
:1004E00030BD436030BD426030BD426030BD85618B
:1004F000426030BD0101010010B50C4988420AD1AB
:1005000001214C06204600F00FFC2046BDE81040BB
:10051000002100F009BC01218C06204600F004FCFB
:100520002046BDE81040002100F0FEBB0064004002
:10053000F0B5827A01219140304C226842F00102EC
:1005400022602E4D1C352A688A432A602B4A067B7E
:100550000C322B4B002E14D116688E431660468841
:10056000C78846EA0746877A03EBC707C7F840669D
:100570000688878846EA0746877A03EBC707C7F8E5
:100580004466067B012E14D116680E43166042881D
:10059000068842EA0642867A03EBC606C6F840267B
:1005A000C288868842EA0642867A03EBC603C3F80D
:1005B0004426124AC37A121D3BB113680B431360E1
:1005C0000E4A0389143223B106E013688B4313608B
:1005D000F6E713688B4313600389012B02D113687C
:1005E0000B431360407B012802D128680843286030
:1005F000206820F001002060F0BD0000006600408F
:1006000000600040002A03D042690A4342617047FB
:1006100042698A434261704710B50022036823F0A3
:1006200002030360036843F0010303604FF6FF73A6
:1006300000E0521C4468E40701D19A42F9D14268B3
:10064000D2073ED08A79012A3DD0026822F080028A
:100650000260CA79012A3BD0026822F0400202609F
:100660000A7A012A39D0026822F0200202604A7A0E
:10067000012A37D0026822F0100202608A7A012A29
:1006800035D0026822F008020260CA7A012A33D00B
:10069000026822F0040202608A78CC78920742EA6B
:1006A00004620C7942EA04424C79098842EA045215
:1006B000491E0A43C261016821F001010160002165
:1006C00020E0002010BD026842F080020260C0E716
:1006D000026842F040020260C2E7026842F0200273
:1006E0000260C4E7026842F010020260C6E70268D6
:1006F00042F008020260C8E7026842F004020260A9
:10070000CAE7491C4268D20701D09942F9D1406832
:10071000C00701D0002010BD012010BD10B500EBB6
:100720000113D3F8B04104F004041472002C2CD04F
:10073000D3F8B041E408546003F5D8731C6804F0A2
:10074000020454725C6804F00F0494725C68240A1A
:10075000D4749C68D4729C68240A14739C68240C1A
:1007600054739C68240E9473DC68D473DC68240A88
:100770001474DC68240C5474DB681B0E937449B148
:10078000016941F02001016110BDD3F8B041640D51
:100790001460D1E7C16841F02001C16010BD0021A3
:1007A0008171C171017241728172C1728170C170B7
:1007B000032101710221417101210180704730B58F
:1007C0000246002093685B010AD49068000101D5BD
:1007D000012005E09068C00001D5022000E004205F
:1007E00004283BD002EB0012D2F8803103F0010361
:1007F000C2F880310B7A93B3D2F880414D681C4324
:100800004B7A43EAC5031C43C2F880418B7A03F05C
:100810000F038B7202F5C072536823F00F0353600D
:1008200053688C7A23435360CB7A8C7B0D7B43EAED
:1008300004634C7B240444EA052423439360CB7B6C
:100840008C7C43EA04634C7C097C240444EA012147
:100850000B43D360116841F00101116030BDFFE727
:10086000D2F880314C7A23430C8843EA4453C2F8CF
:100870008031CBE72DE9F04704460F46244D002692
:100880002878904204D0AE604FF6FF70E8602A707E
:100890002188DFF8809041F6FF78B9421BD00BD257
:1008A000A868012819D0E968884202D3AE60C5F86B
:1008B0000C80A868401CA8602188B9420BD9A868A0
:1008C000012817D0E968884202D3AE60C5F80C80D1
:1008D000A868401CA860BDE8F087484600F062FCAC
:1008E00020884FF49671884202D2401C2080E0E7B5
:1008F0002180DEE7484600F055FC2088782800D8A3
:10090000268020880028E3D0401E2080E0E70000F9
:100910000C0000200000014070472DE9F04100224A
:1009200001274FF0030C07FA02F50B682B40AB428E
:100930002CD1066853000CFA03F4A64306600E7926
:10094000D0F800809E4046EA080606600E79012E27
:1009500001D0022E12D18668A64386604E79D0F867
:1009600008809E4046EA080686604668AE434660B8
:1009700045688E799640B6B235434560C568A54353
:10098000C560CC799C40C3681C43C460521C102ACB
:10099000C9D3BDE8F08110B54B07DB0E9A40C908FA
:1009A00000EB8100016A0F249C40A1430162016AAF
:1009B0001143016210BD4183704701837047426952
:1009C0004A4042617047FEE71CB50121182000F043
:1009D0008FF90820009001208DF8040003208DF885
:1009E0000500054C69462046FFF797FF0821204681
:1009F000FFF7E3FF1CBD0000000C0240FEE7000013
:100A00002DE9F05F5649DFF85C91574E08780025D4
:100A1000012809D1A6F10A0072780270B2784270FA
:100A20000088A9F800000D704F4CF0780127103CA9
:100A30004FF480584FF0030A4FF0020B012804D006
:100A4000022819D0032822D10AE041464748FFF77F
:100A5000B2FF4FF400614648FFF7AFFFA77016E002
:100A60004FF400614248FFF7A6FF41463F48FFF7B9
:100A7000A4FF84F802A00AE04FF400613C48FFF7AD
:100A80009AFF41463948FFF796FF84F802B0317863
:100A9000354E3848361D4FF48068012906D00229AA
:100AA00013D0032921D0042950D135E02946A5804F
:100AB00000F078FB41463048FFF77FFF41462C4865
:100AC000FFF779FF6770377040E02946A58000F096
:100AD00069FB41462848FFF770FF41462448FFF76D
:100AE0006AFF84F801B0377030E041462248FFF7D2
:100AF00062FF41461E48FFF75EFF6078032800D082
:100B0000A580524684F801A01748B9F800100C38A7
:100B1000FFF7B0FE377019E041461748FFF74BFF6B
:100B20006078042805D0A58041461148FFF743FFAF
:100B300003E041460E48FFF740FF042262700A4876
:100B4000B9F800100C38FFF795FE377060787070B8
:100B5000A088B070000AF0703571BDE8F09F000009
:100B600000000020020000201C00002000000240C5
:100B7000000C024000000140001002402DE9FC473B
:100B80000121192000F0B4F84FF480570097012498
:100B90008DF8044003258DF80550DFF85C80694628
:100BA0004046FFF7BAFEA60200968DF804408DF885
:100BB0000550DFF8489069464846FFF7AEFEA802A8
:100BC00000908DF804408DF805500D4C6946204684
:100BD000FFF7A3FE31464846FFF7EDFE31462046BB
:100BE000FFF7E9FEE1142046FFF7E5FE39464046EF
:100BF000FFF7E1FEBDE8FC87000002400010024064
:100C0000000C02407047F8B514208DF800004FF436
:100C10004076304600F060F800258DF801508DF8E0
:100C2000025001248DF80340684600F021F840216D
:100C30008DF80010304600F04FF88DF801508DF817
:100C400002408DF80340684600F012F84FF4A060AF
:100C500000F042F81C208DF800008DF801408DF85E
:100C600002508DF80340684600F002F8F8BD00001D
:100C700030B50F23C27801250178002A1FD0154A0C
:100C8000126802F4E062C2F5E062C2F30722C2F128
:100C90000404D3404278A24084781C4014432201CB
:100CA00001F1E02181F80024007800F01F018D405F
:100CB0004009800000F1E020C0F8005130BD01F093
:100CC0001F0085404809800000F1E020C0F88051F5
:100CD00030BD00000CED00E0024908430249086005
:100CE000704700000000FA050CED00E070470000BE
:100CF000054A002903D0116801431160704711684B
:100D0000814311607047000030380240054A0029D5
:100D100003D011680143116070471168814311606D
:100D20007047000040380240054A002903D011688E
:100D300001431160704711688143116070470000E2
:100D400020380240054A002903D011680143116090
:100D500070471168814311607047000044380240B9
:100D6000704700000CB500220192009227490868E4
:100D700040F4803008604FF4A043086800F400306D
:100D800000900198401C0190009810B90198984279
:100D9000F3D10868800302D50120009000E00092A2
:100DA0000098012831D119484030026842F0805241
:100DB00002601748026842F440420260134808305B
:100DC00002680260026842F400420260026842F473
:100DD000A0520260021F0F4B13600A6842F080723B
:100DE0000A600A689201FCD50B4A40F20571116055
:100DF000016821F003010160016841F00201016016
:100E00000168C1F381010229FAD10CBD003802400A
:100E10000070004019544007003C02400D484FF458
:100E20007A710068B0FBF1F0401EB0F1807F01D311
:100E300001200AE04FF0E0214861074AF0201070DD
:100E400000208861072008610020002800D0FEE70C
:100E5000704700002800002023ED00E000F0E2B918
:100E600010B51248016841F4700101601048016832
:100E700041F0010101600E4A002108321160026850
:100E80000C4B1A400260031D0B4A1A60026822F4E0
:100E90008022026006480C300160FFF763FF0349BF
:100EA0004FF000608039086010BD000088ED00E060
:100EB00000380240FFFFF6FE103000242DE9F0411B
:100EC0008AB001210846FFF73DFF01211020FFF7FE
:100ED0000FFF4FF4C040089002258DF824500320E6
:100EE0008DF8250000248DF8264001268DF8276016
:100EF000274F08A93846FFF710FD01220D2138467B
:100F0000FFF749FD01220E213846FFF744FDA820D6
:100F1000ADF81400ADF816404FF4FA700690ADF835
:100F20001C408DF81E40DFF86C8005A9404600F09B
:100F30003BF96027ADF80070ADF802600294ADF89F
:100F40000C506946404600F0A9F80821404600F0E0
:100F5000E7F8ADF80070ADF802600294ADF80C50FF
:100F60006946404600F0E2F80821404600F010F9DA
:100F70000121404600F032F80121404600F03DF8E2
:100F80000121404600F065F80AB0BDE8F08100009C
:100F9000001002400000014010B501218C072046DE
:100FA00000F065F8002811D00121204600F022F859
:100FB00007480188491C018008210648FFF7FFFC0B
:100FC000BDE810400449842000F046B910BD00007F
:100FD00008000020000C024020000020002904D05E
:100FE000018841F0800101807047018821F0800173
:100FF00001807047C94301827047002904D00188ED
:1010000041F0010101807047018821F00101018058
:1010100070473EB501210846FFF778FE41F26700B0
:101020000190C720ADF800000020ADF80200ADF837
:1010300008004FF080446946204600F0B5F80122D0
:101040001146204600F01FF801212046FFF7D5FF8A
:101050003EBD002905D030F8441F41F40041018015
:10106000704730F8441FC1F30E01018070470246FB
:101070000020138A0B4092890A40002B02D0002ADC
:1010800000D001207047002A03D082890A43828160
:10109000704782898A4382817047000070B5028C54
:1010A00022F480720284028C8388848B24F0700482
:1010B00024F003040D88254322F400728E894FF634
:1010C000FF7404EA062616434A8804EA02223243E1
:1010D000114EB04202D0114EB04217D122F4006638
:1010E000CA8904EA0222324322F480668A8804EA2A
:1010F0000222324323F4805323F400530E8A04EA7D
:1011000006161E434B8A04EA031333438380858308
:101110008968C163028470BD000001400004014081
:10112000828B22F008020A438283704770B5028CDA
:1011300022F480520284058C8288838B23F4E0435E
:1011400023F440760C884FF6FF7303EA04243443FB
:1011500025F400558E8903EA06362E434D8803EAAE
:1011600005353543084EB04202D0084EB04205D195
:1011700022F480460A8A03EA821232438280848300
:1011800089680164058470BD0000014000040140CD
:10119000828B22F400624FF6FF7303EA01211143B0
:1011A00081837047C163704730B50288164C174D74
:1011B000A0420DD0A8420BD0B0F1804F08D0144B04
:1011C000984205D0134B984202D0134B984203D15A
:1011D00022F070034A881A43104B984206D0104BF5
:1011E000984203D022F440730A891A4302804A6865
:1011F000C2620A880285A04201D0A84201D1897A40
:1012000001860121818230BD0000014000040140BF
:101210000004004000080040000C004000100040A6
:101220000014004003480168002902D00168491EEB
:101230000160704704000020FEE702E008C8121FAA
:1012400008C1002AFAD170477047002001E001C1AF
:10125000121F002AFBD1704710B586B00022019200
:10126000029004208DF80C008DF80D2008208DF8D8
:101270000E00002001AA14180B5CE372401CC0B2DF
:101280000828F8D301A90248FFF799FA06B010BD63
:1012900000640040FFF7B7FCFFF7C0FDFFF70EFE4C
:1012A000FFF7B7FEFEF7A0FFFFF732F8FFF766FC87
:1012B000FFF78AFB0148FFF7A3FBFBE71C000020B8
:1012C00005000000000000000C000000010000000C
:1012D000C20100000A00000000000000050000003C
:1012E00001000000900100000F000000000000005D
:1012F0000C00000001000000960000001400000037
:10130000000000000500000001000000C80000000F
:1013100019000000000000000500000007000000A8
:101320007000000028000000000000000500000020
:101330000100000064000000320000000000000016
:101340000500000007000000380000003E0000001B
:10135000000000000C00000001000000240000005C
:101360005000000000000000050000000100000027
:1013700032000000640000000000000005000000D2
:10138000070000001C0000007D00000000000000BD
:101390000C0000000100000012000000C800000066
:1013A0000000000005000000070000000E00000023
:1013B000FA000000000000000E0000000400000021
:1013C0000800000090010000000000000E00000076
:1013D0000400000005000000F4010000000000000F
:1013E0000E00000004000000040000009A0200004B
:1013F00000000000040000000100000008000000E0
:1014000020030000000000000700000002000000B0
:101410000E000000E8030000000000000E000000C5
:101420000400000002000000481400080000002032
:101430003C0000003A120008841400083C00002020
:10144000040400004A120008000000000000000030
:10145000000000000000000000000000000000008C
:10146000000000000000000000000000000000007C
:10147000007A030A000000000000000001020304DB
:04148000060708094A
:040000050800018965
:00000001FF
